:100000000C9400010C941D010C941D010C941D0115
:100010000C941D010C941D010C941D010C941D01E8
:100020000C941D010C941D010C94B5050C94F30562
:100030000C941D010C941D010C941D010C941D01C8
:100040000C941D010C941D010C941D010C941D01B8
:100050000C941D010C941D010C941D010C941D01A8
:100060000C941D010C941D010C941D010C941D0198
:100070000C941D010C941D010C941D010C941D0188
:100080000C941D010C941D010C941D010C941D0178
:100090000C941D010C941D010C941D010C941D0168
:1000A0000C941D010C941D010C941D0145053F0588
:1000B000390533052D05270521051B0515050F05F8
:1000C00009050305FD04F704F104EB04E504DF046E
:1000D000D904D304CD04C704C104BB04B504AF04E0
:1000E000A904A3049D04970491048B0485047F0450
:1000F000790473046D04670461045B0455044F04C0
:10010000490443043D04370431042B0425041F042F
:10011000190413040D0407040104FB03F503EF03A2
:10012000E903E303DD03D703D103CD03C9030001D2
:100130000000E3011200020000A0014300030000E0
:100140009C010401030904860114020309046601E9
:100150001E0303090458010C0C0330003000380062
:100160003100350000001E035500530042002000FE
:10017000530065007200690061006C0020004300BC
:100180004E0043000000140363006E006300400053
:1001900073006800610063006B0000000403090441
:1001A00009024300020100C03209040000010202FA
:1001B00001000524001001052401010104240206A8
:1001C0000524060001070582031000400904010010
:1001D000020A000000070503024000000705840230
:1001E0004000001201000202000010ADDEFEAF0070
:1001F00001010203010001C11201803601813600B4
:1002000011241FBECFEFDAE0DEBFCDBF11E0A0E0CA
:10021000B1E0E6EBF0E102C005900D92AC33B1071E
:10022000D9F721E0ACE3B1E001C01D92A034B207E0
:10023000E1F70E942B010C9459080C9400000097E0
:1002400049F00197EFE9FFE03197F1F700C00000B6
:100250000097B9F70895CF93DF93CDB7DEB7C656B1
:10026000D1400FB6F894DEBF0FBECDBF80E890E05E
:100270000FB6F89480936100909361000FBE85BF24
:1002800085BF6E9A6A980E9450028AEF90E00E94A1
:100290001F01FE0131968AEFDF011D928A95E9F771
:1002A000E650FF4F82E3DF01282F1D922A95E9F7E0
:1002B00091E0908392E0918393E0928394E0938322
:1002C00095E0948396E0958397E0968398E09783F2
:1002D00099E090879AE09187F296DF011D928A95C6
:1002E000E9F78BE080838CE081838DE082838EE070
:1002F00083838FE0848380E1858381E1868382E14B
:10030000878383E1808784E1818700E010E0EC52FD
:10031000F1406F014E01FBEF8F0E911C5E0123ED4A
:10032000A21A2EEFB20A0F2EFAEF4F2EF02D512CFB
:10033000612CC401092C000CAA0BBB0BC15ADE4F67
:1003400088839983AA83BB83CF55D140C5010B2CE9
:10035000000CAA0BBB0BCD59DE4F88839983AA836F
:10036000BB83C356D1406894772476F80E949802E4
:10037000882309F474C00E946C027601E00EF11E1D
:10038000D7018C930E94C8020E94B202C801019654
:10039000F70120812F3721F48230910528F0029750
:1003A0008431910518F009C0852D962DFE01E80FC6
:1003B000F91F20812D3009F051C0FE01E80FF91F0F
:1003C0001082C6010E94790743E050E067E071E0C7
:1003D000C6010E940A08892B39F58BE091E00E9442
:1003E0007907C15ADE4F688179818A819B81CF5517
:1003F000D1400E94890783E191E00E947907CD599D
:10040000DE4F688179818A819B81C356D1400E94E9
:1004100089078BE191E00E9479070E94690545E018
:10042000B501C4010E94E10785E291E00E947907CD
:10043000C4010E9479078DE291E00E947907C5010D
:100440000E94790782E291E00E947907D601E42DAB
:100450001D92EA95E9F7052D162D01C08C01FFEFDD
:1004600020E782E0F15020408040E1F700C000002A
:100470008EB187258EB97ACFCF93DF93EC01789434
:1004800084E391E00E947907BE01DD0F880B990B90
:100490000E9489070E946905F894DF91CF91089521
:1004A00081E08093D70080EA8093D80082E189BD03
:1004B00009B400FEFDCF80E98093D8001092E000DF
:1004C00010923F0110923C018CE08093E2007894FE
:1004D000089580913F0108952FB7F89480913F01CE
:1004E000811103C02FBF8FEF089583E08093E9004F
:1004F0008091E80085FD11C082FD04C00BC082FD23
:1005000004C008C0E8EEF0E09BE69083808185FFA0
:10051000F6CF03C02FBF8FEF08958091F100909127
:10052000E80095FD03C09BE69093E8002FBF089577
:100530009FB7F89480913F01882389F083E08093EE
:10054000E9008091F20081110BC02091E80022FFA8
:1005500007C025FD05C02BE62093E80001C080E020
:100560009FBF089580913F01882389F02FB7F894A9
:1005700083E08093E9008091E80085FF07C0E8EE02
:10058000F0E09BE69083808185FDFCCF2FBF08952E
:10059000CF93DF9390913F01992309F44CC09FB70B
:1005A000F89424E02093E90020913D01222349F0B2
:1005B0002091E80025FD03C09FBF8FEF41C010923E
:1005C0003D013091E400375E2091E80025FD24C014
:1005D0009FBF9091E400391781F090913F019923DA
:1005E00061F1A9EEB0E044E0E8EEF0E0C4EED0E066
:1005F0000DC09FBF9881391305C081E080933D01F4
:100600008FEF1EC090913F019923C9F09FB7F894D6
:100610004C93208125FFEDCF8093F1008091E8007D
:1006200085FD03C08AE38093E80085E080933E0166
:100630009FBF80E005C08FEF03C08FEF01C08FEF39
:10064000DF91CF91089590913F019923D9F02FB771
:10065000F89494E09093E9009091E80095FD03C030
:100660002FBF8FEF08958093F1008091E80085FD02
:1006700003C08AE38093E80085E080933E012FBFAA
:1006800080E008958FEF08955F926F927F928F922E
:100690009F92AF92BF92CF92DF92EF92FF920F9311
:1006A0001F93CF93DF93DC0180913F01882309F4EE
:1006B000F9C19FB7F89484E08093E90080913D01EF
:1006C000882349F08091E80085FD03C09FBF8FEF2C
:1006D000F0C110923D016115710509F4E5C1C4EE48
:1006E000D0E048EE50E00F2EF9EEEF2EF12CF02D79
:1006F00034E00F2EF2EFCF2ED12CF02D689466242B
:1007000066F801EF10E00F2EFAE35F2EF02D0F2EAA
:10071000F5E07F2EF02D8881875EFA01208125FD8E
:1007200020C09FBF9881891751F090913F01992374
:1007300009F4BCC10EC09FBF9881891305C081E038
:1007400080933D018FEFB5C190913F01992309F44A
:10075000AFC19FB7F894F7013083FA01208125FFDC
:10076000EACFF6018081E62DE81BAE2EB12C6A158A
:100770007B0508F4E62F6E1B71098E2E912CF1E497
:100780008F16910408F07BC1F401EA5AFF4F0C94D4
:1007900004088C91F801808311968C91F801808374
:1007A0001196FD0131968C91D8018C9301C0FD0109
:1007B000DF0111968081F8018083FD0131968C91D3
:1007C000D8018C9301C0FD01DF0111968081F801F1
:1007D0008083FD0131968C91D8018C9301C0FD017D
:1007E000DF0111968081F8018083FD0131968C91A3
:1007F000D8018C9301C0FD01DF0111968081F801C1
:100800008083FD0131968C91D8018C9301C0FD014C
:10081000DF0111968081F8018083FD0131968C9172
:10082000D8018C9301C0FD01DF0111968081F80190
:100830008083FD0131968C91D8018C9301C0FD011C
:10084000DF0111968081F8018083FD0131968C9142
:10085000D8018C9301C0FD01DF0111968081F80160
:100860008083FD0131968C91D8018C9301C0FD01EC
:10087000DF0111968081F8018083FD0131968C9112
:10088000D8018C9301C0FD01DF0111968081F80130
:100890008083FD0131968C91D8018C9301C0FD01BC
:1008A000DF0111968081F8018083FD0131968C91E2
:1008B000D8018C9301C0FD01DF0111968081F80100
:1008C0008083FD0131968C91D8018C9301C0FD018C
:1008D000DF0111968081F8018083FD0131968C91B2
:1008E000D8018C9301C0FD01DF0111968081F801D0
:1008F0008083FD0131968C91D8018C9301C0FD015C
:10090000DF0111968081F8018083FD0131968C9181
:10091000D8018C9301C0FD01DF0111968081F8019F
:100920008083FD0131968C91D8018C9301C0FD012B
:10093000DF0111968081F8018083FD0131968C9151
:10094000D8018C9301C0FD01DF0111968081F8016F
:100950008083FD0131968C91D8018C9301C0FD01FB
:10096000DF0111968081F8018083FD0131968C9121
:10097000D8018C9301C0FD01DF0111968081F8013F
:100980008083FD0131968C91D8018C9301C0FD01CB
:10099000DF0111968081F8018083FD0131968C91F1
:1009A000D8018C9301C0FD01DF0111968081F8010F
:1009B0008083FD0131968C91D8018C9301C0FD019B
:1009C000DF0111968081F8018083FD0131968C91C1
:1009D000D8018C9301C0FD01DF0111968081F801DF
:1009E0008083FD0131968C91D8018C9301C0FD016B
:1009F000DF0111968081F8018083FD0131968C9191
:100A0000D8018C9301C0FD01DF0111968081F801AE
:100A10008083FD0131968C91D8018C9301C0FD013A
:100A2000DF0111968081F8018083FD0131968C9160
:100A3000D8018C9301C0FD01DF0111968081F8017E
:100A40008083FD0131968C91D8018C9301C0FD010A
:100A5000DF0111968081F8018083FD0131968C9130
:100A6000D8018C9301C0FD01DF0111968081F8014E
:100A70008083FD0131968C91D8018C9301C0FD01DA
:100A8000DF0111968081F8018083FA01808185FF62
:100A9000508270923E019FBF6115710509F03BCEF7
:100AA00080E007C08FEF05C080E003C08FEF01C07A
:100AB0008FEFDF91CF911F910F91FF90EF90DF901B
:100AC000CF90BF90AF909F908F907F906F905F90EE
:100AD00008958FB7F89490913E01992341F094E0E6
:100AE0009093E9009AE39093E80010923E018FBF43
:100AF000089560910001709101018091020190912F
:100B000003010895809104010895809105010895DD
:100B100080910601089580913C0108952FB7F894C3
:100B200090913F01911103C02FBF8FEF089592E084
:100B30009093E9009091E80095FD03C02FBF8FEFDF
:100B40000895E1EFF0E091EA908390E290831082C3
:100B500010821082108291E09083108280838AE359
:100B60008093E8002FBF80E008951F920F920FB688
:100B70000F9211248F939F93EF93FF93E1EEF0E098
:100B80008081108283FF11C01092E90091E0909360
:100B9000EB001092EC0092E19093ED0098E09093BE
:100BA000F00010923F0110923C0182FF13C080912F
:100BB0003F01882379F080913E01882359F08150CC
:100BC00080933E01811106C084E08093E9008AE3AE
:100BD0008093E800FF91EF919F918F910F900FBE4E
:100BE0000F901F9018951F920F920FB60F9211241D
:100BF0000F931F932F933F934F935F936F937F9325
:100C00008F939F93AF93BF93CF93DF93EF93FF9314
:100C10001092E9008091E80083FF4FC1E1EFF0E01E
:100C2000A08180812081908130E0392B40819081AA
:100C300050E0BA01792BC081D08192EF9093E80007
:100C4000863009F059C004C081E28093EB003CC1BA
:100C50004EE251E008E511E0CA01FA01A591B49114
:100C60002A173B0709F5FA013296A591B4916A1744
:100C70007B07D1F4FA01349645915491FC013696E4
:100C800024918C2F90E09D2B8F3F910519F010F04F
:100C90008FEF90E0821708F4282FA8EEB0E070E103
:100CA0006EEFC1EFD0E006C0495F5F4F40175107BC
:100CB00099F6CACF8C91982F9570E1F382FD04C10B
:100CC000322F213108F0372F332309F4FAC0FA010B
:100CD000832F94919883815031968111FACF8FEFB1
:100CE000830F90E00196480F591F231B6C9321112D
:100CF000E1CF3031F9F2E8C0853061F48EEF8093B6
:100D0000E800E8EEF0E0808180FFFDCF20682093CE
:100D1000E300DAC0893009F035C0A111CEC02093BC
:100D20003F0110923C0110923E018EEF8093E8004B
:100D300081E025EF31E0C9EED0E0ABEEB0E00CEEA3
:100D400010E06DEE70E08883A9014F5F5F4FF901FD
:100D500094919C93992361F0FA014491F8014083A6
:100D6000F901329694912D5F3F4FFB01908301C0B2
:100D70009A018F5F853039F7EAEEF0E08EE18083EB
:100D80001082A2C0883081F4A03809F096C0E8EE45
:100D9000F0E0808180FFFDCF80913F018093F100E2
:100DA0008EEF8093E80090C08132B9F4A13A09F047
:100DB00084C0E8EEF0E0808180FFFDCFE0E0F1E06C
:100DC00027E031E0A1EFB0E081918C932E173F072F
:100DD000D9F78EEF8093E80077C08032D1F4A1324A
:100DE00009F06BC0E8EEF0E0808182FFFDCFE0E02B
:100DF000F1E027E031E0A1EFB0E08C9181932E1774
:100E00003F07D9F7E8EEF0E08BEF80838EEF808329
:100E10005BC0823271F4A13209F04FC020933C01D3
:100E2000E8EEF0E0808180FFFDCF8EEF8093E80058
:100E30004BC081111AC0E8EEF0E0808180FFFDCF49
:100E4000A23851F4E9EEF0E060838091EB0085FB7D
:100E5000882780F9108201C080E0E1EFF0E0808314
:100E600010828EEF8093E8002FC0982F9D7F9130E5
:100E700021F5A23011F5232B01F5462F4F779FEF77
:100E8000940F9430D0F49EEF9093E8004093E900E3
:100E9000833021F481E28093EB0016C089E18093D6
:100EA000EB0081E090E002C0880F991F4A95E2F7BD
:100EB000EAEEF0E08083108207C081E28093EB00CD
:100EC00003C06C932111F6CEFF91EF91DF91CF918A
:100ED000BF91AF919F918F917F916F915F914F9152
:100EE0003F912F911F910F910F900FBE0F901F9068
:100EF0001895CF93DF93EC012196FC018081882324
:100F000029F00E94C80289918111FBCFDF91CF9116
:100F10000895CF93DF93CDB7DEB764970FB6F894FB
:100F2000DEBF0FBECDBF2AE0AE014F5F5F4F0E9414
:100F30001808CE0101960E94790764960FB6F894BE
:100F4000DEBF0FBECDBFDF91CF9108950F931F93EA
:100F5000CF93DF93CCE1D0E0082F10E0C8010C2E36
:100F600002C0959587950A94E2F78F708A3010F049
:100F7000895C01C0805D0E94C8022497CC3F8FEF3E
:100F8000D80761F7DF91CF911F910F9108950F93CB
:100F90001F93CF93DF93EC018E010E946C02899323
:100FA0008D30D1F780E3F8018083DF91CF911F91DD
:100FB0000F9108956EB808950EB80895860F992779
:100FC0000895F89420E0A82FB92FE62FF72F042FCB
:100FD0009B2F8A2F0E943C029F2F8E2F0E943C0243
:100FE000002381F00A959927802F0E943C02FC90F3
:100FF00099278F2D0E943C02FF2021F01191F126AC
:10100000FD92EECF78940895EE0FFF1F0590F491B6
:10101000E02D0994FB01DC014150504030F08D91EE
:101020000190801919F40020B9F7881B990B0895D5
:10103000BB272A3051F4992342F4BDE29095809564
:10104000709561957F4F8F4F9F4F0C942808BB2759
:10105000FA01A62F6217710581059105330B30FB4C
:1010600066F0AA27660F771F881F991FAA1FA2176D
:1010700010F0A21B63953850A9F7A05DAA3308F0C1
:10108000A95DA19336F7B111B1931082CA010C94F6
:101090004908DC01FC01672F71917723E1F7329752
:1010A00004C07C916D9370836291AE17BF07C8F343
:0610B0000895F894FFCF43
:1010B60000E10000000008637279000D0A2A7478C6
:1010C600743A000D0A2A6B65783A000D0A7374614A
:1010D60072740D0A000D0A546578743A000D0A4BB5
:0C10E60065793A000D0A61736D3A000054
:00000001FF
