:100000000C9400010C941D010C941D010C941D0115
:100010000C941D010C941D010C941D010C941D01E8
:100020000C941D010C941D010C94EC050C942A06F3
:100030000C941D010C941D010C941D010C941D01C8
:100040000C941D010C9426080C941D010C941D01A8
:100050000C941D010C941D010C941D010C941D01A8
:100060000C941D010C941D010C941D010C941D0198
:100070000C941D010C941D010C941D010C941D0188
:100080000C941D010C941D010C941D010C941D0178
:100090000C941D010C941D010C941D010C941D0168
:1000A0000C941D010C941D010C941D017C0576051A
:1000B00070056A0564055E05580552054C05460540
:1000C00040053A0534052E05280522051C051605B0
:1000D00010050A050405FE04F804F204EC04E60425
:1000E000E004DA04D404CE04C804C204BC04B60498
:1000F000B004AA04A4049E04980492048C04860408
:1001000080047A0474046E04680462045C04560477
:1001100050044A0444043E04380432042C042604E7
:1001200020041A0414040E0408040404000400014A
:100130000000E3011200020000A0014300030000E0
:100140009C010401030904860114020309046601E9
:100150001E0303090458010C0C0330003000380062
:100160003100350000001E035500530042002000FE
:10017000530065007200690061006C0020004300BC
:100180004E0043000000140363006E006300400053
:1001900073006800610063006B0000000403090441
:1001A00009024300020100C03209040000010202FA
:1001B00001000524001001052401010104240206A8
:1001C0000524060001070582031000400904010010
:1001D000020A000000070503024000000705840230
:1001E0004000001201000202000010ADDEFEAF0070
:1001F00001010203010001C11201803601813600B4
:1002000011241FBECFEFDAE0DEBFCDBF12E0A0E0C9
:10021000B1E0E4E8F1E102C005900D92A23AB10725
:10022000D9F722E0A2EAB2E001C01D92AA3AB207D1
:10023000E1F70E943E010C94C0080C9400000F935B
:100240001F93CF93DF938C01EB018FEC91E00E9421
:10025000B007C8010E94B00787ED91E00E94B00787
:10026000CE010E94B0078FE992E00E94B0070E9481
:10027000A005DF91CF911F910F910895CF93DF9348
:10028000CDB7DEB7C25CD1400FB6F894DEBF0FBE6B
:10029000CDBF80E890E00FB6F89480936100909312
:1002A00061000FBE85BF85BF6E9A6A980E941108D3
:1002B0000E948702FE0131968AEFDF011D928A9526
:1002C000E9F780E1E7E0F1E0DE01A550BF4F0190E2
:1002D0000D928A95E1F7EBEFF0E0EC0FFD1F7096C1
:1002E00084E5DF011D928A95E9F78DE1EBE6F1E007
:1002F000DE01A15ABE4F01900D928A95E1F7EFE51C
:10030000F1E0EC0FFD1F7D9687E4DF011D928A95D9
:10031000E9F700E010E0EB57F1407F013E01F1EA20
:100320006F1AFEEF7F0A5E018BEFA80EB11C0F2E35
:10033000FAEF2F2EF02D2E0196E0490E511C4E01A2
:10034000A5E08A0E911C6894332436F80E94CF02EF
:10035000882309F4D8C00E94A3026701C00ED11EF1
:10036000F60180830E94FF020E94E902C801019603
:10037000D6012C912F3721F48230910528F0029775
:100380008A3F910518F009C080E090E0FE01E80F77
:10039000F91F20812D3009F0B5C0FE01E80FF91FCB
:1003A0001082F701E80FF91F1082C7010E94B00701
:1003B00043E050E06EED71E0C7010E947108892BA7
:1003C00049F4B301C5010E941F01B301C5010E9498
:1003D00054088CC044E050E062EE71E0C7010E9416
:1003E0007108892B49F5F50101900020E9F7319753
:1003F000CF018A199B09F40101900020E9F7319798
:10040000E819F909E817F90790F0F30184E6119269
:100410008A95E9F7F40101900020E9F73197AF01DF
:1004200048195909B401C3010E9468085FC087EEEA
:1004300091E00E94B0075AC045E050E066EF71E0DD
:10044000C7010E947108892B49F5F3010190002032
:10045000E9F73197CF0186199709F2010190002041
:10046000E9F73197E419F5098E179F0790F0D50148
:10047000E4E61D92EA95E9F7F20101900020E9F720
:100480003197AF0144195509B201C5010E946808AE
:100490002DC087EE91E00E94B00728C089818F337C
:1004A00049F044E050E06CEF71E0C7010E94710830
:1004B000892BE1F481E092E00E94B0078EE292E0A5
:1004C0000E94B00787E392E00E94B0078FE592E0B8
:1004D0000E94B00786E792E00E94B0078BE892E0A6
:1004E0000E94B00783E092E00E94B007B301C5010B
:1004F0000E941F01D701E22D1D92EA95E9F700E065
:1005000010E001C08C018EB183258EB91FCF81E030
:100510008093D70080EA8093D80082E189BD09B436
:1005200000FEFDCF80E98093D8001092E000109289
:10053000A5021092A2028CE08093E20078940895C4
:100540008091A50208952FB7F8948091A50281119A
:1005500003C02FBF8FEF089583E08093E90080915F
:10056000E80085FD11C082FD04C00BC082FD04C0FF
:1005700008C0E8EEF0E09BE69083808185FFF6CF2F
:1005800003C02FBF8FEF08958091F1009091E80094
:1005900095FD03C09BE69093E8002FBF08959FB799
:1005A000F8948091A502882389F083E08093E90084
:1005B0008091F20081110BC02091E80022FF07C05A
:1005C00025FD05C02BE62093E80001C080E09FBF19
:1005D00008958091A502882389F02FB7F89483E0CD
:1005E0008093E9008091E80085FF07C0E8EEF0E025
:1005F0009BE69083808185FDFCCF2FBF0895CF932C
:10060000DF939091A502992309F44CC09FB7F89409
:1006100024E02093E9002091A302222349F02091B5
:10062000E80025FD03C09FBF8FEF41C01092A302D9
:100630003091E400375E2091E80025FD24C09FBF83
:100640009091E400391781F09091A502992361F10E
:10065000A9EEB0E044E0E8EEF0E0C4EED0E00DC07A
:100660009FBF9881391305C081E08093A3028FEF6B
:100670001EC09091A5029923C9F09FB7F8944C939E
:10068000208125FFEDCF8093F1008091E80085FD6A
:1006900003C08AE38093E80085E08093A4029FBFB3
:1006A00080E005C08FEF03C08FEF01C08FEFDF91B7
:1006B000CF9108959091A5029923D9F02FB7F8947E
:1006C00094E09093E9009091E80095FD03C02FBF5E
:1006D0008FEF08958093F1008091E80085FD03C0BD
:1006E0008AE38093E80085E08093A4022FBF80E036
:1006F00008958FEF08955F926F927F928F929F92ED
:10070000AF92BF92CF92DF92EF92FF920F931F931F
:10071000CF93DF93DC018091A502882309F4F9C10E
:100720009FB7F89484E08093E9008091A302882326
:1007300049F08091E80085FD03C09FBF8FEFF0C1B5
:100740001092A3026115710509F4E5C1C4EED0E071
:1007500048EE50E00F2EF9EEEF2EF12CF02D34E0A4
:100760000F2EF2EFCF2ED12CF02D6894662466F870
:1007700001EF10E00F2EFAE35F2EF02D0F2EF5E0C3
:100780007F2EF02D8881875EFA01208125FD20C013
:100790009FBF9881891751F09091A502992309F480
:1007A000BCC10EC09FBF9881891305C081E08093B2
:1007B000A3028FEFB5C19091A502992309F4AFC1AF
:1007C0009FB7F894F7013083FA01208125FFEACF23
:1007D000F6018081E62DE81BAE2EB12C6A157B0553
:1007E00008F4E62F6E1B71098E2E912CF1E48F1602
:1007F000910408F07BC1F401EA5AFF4F0C9462089F
:100800008C91F801808311968C91F8018083119668
:10081000FD0131968C91D8018C9301C0FD01DF015F
:1008200011968081F8018083FD0131968C91D80169
:100830008C9301C0FD01DF0111968081F801808356
:10084000FD0131968C91D8018C9301C0FD01DF012F
:1008500011968081F8018083FD0131968C91D80139
:100860008C9301C0FD01DF0111968081F801808326
:10087000FD0131968C91D8018C9301C0FD01DF01FF
:1008800011968081F8018083FD0131968C91D80109
:100890008C9301C0FD01DF0111968081F8018083F6
:1008A000FD0131968C91D8018C9301C0FD01DF01CF
:1008B00011968081F8018083FD0131968C91D801D9
:1008C0008C9301C0FD01DF0111968081F8018083C6
:1008D000FD0131968C91D8018C9301C0FD01DF019F
:1008E00011968081F8018083FD0131968C91D801A9
:1008F0008C9301C0FD01DF0111968081F801808396
:10090000FD0131968C91D8018C9301C0FD01DF016E
:1009100011968081F8018083FD0131968C91D80178
:100920008C9301C0FD01DF0111968081F801808365
:10093000FD0131968C91D8018C9301C0FD01DF013E
:1009400011968081F8018083FD0131968C91D80148
:100950008C9301C0FD01DF0111968081F801808335
:10096000FD0131968C91D8018C9301C0FD01DF010E
:1009700011968081F8018083FD0131968C91D80118
:100980008C9301C0FD01DF0111968081F801808305
:10099000FD0131968C91D8018C9301C0FD01DF01DE
:1009A00011968081F8018083FD0131968C91D801E8
:1009B0008C9301C0FD01DF0111968081F8018083D5
:1009C000FD0131968C91D8018C9301C0FD01DF01AE
:1009D00011968081F8018083FD0131968C91D801B8
:1009E0008C9301C0FD01DF0111968081F8018083A5
:1009F000FD0131968C91D8018C9301C0FD01DF017E
:100A000011968081F8018083FD0131968C91D80187
:100A10008C9301C0FD01DF0111968081F801808374
:100A2000FD0131968C91D8018C9301C0FD01DF014D
:100A300011968081F8018083FD0131968C91D80157
:100A40008C9301C0FD01DF0111968081F801808344
:100A5000FD0131968C91D8018C9301C0FD01DF011D
:100A600011968081F8018083FD0131968C91D80127
:100A70008C9301C0FD01DF0111968081F801808314
:100A8000FD0131968C91D8018C9301C0FD01DF01ED
:100A900011968081F8018083FD0131968C91D801F7
:100AA0008C9301C0FD01DF0111968081F8018083E4
:100AB000FD0131968C91D8018C9301C0FD01DF01BD
:100AC00011968081F8018083FD0131968C91D801C7
:100AD0008C9301C0FD01DF0111968081F8018083B4
:100AE000FD0131968C91D8018C9301C0FD01DF018D
:100AF00011968081F8018083FA01808185FF508200
:100B00007092A4029FBF6115710509F03BCE80E091
:100B100007C08FEF05C080E003C08FEF01C08FEFEB
:100B2000DF91CF911F910F91FF90EF90DF90CF90C9
:100B3000BF90AF909F908F907F906F905F9008953F
:100B40008FB7F8949091A402992341F094E0909388
:100B5000E9009AE39093E8001092A4028FBF0895F1
:100B60006091000170910101809102019091030157
:100B70000895809104010895809105010895809160
:100B8000060108958091A20208952FB7F8949091DC
:100B9000A502911103C02FBF8FEF089592E09093AB
:100BA000E9009091E80095FD03C02FBF8FEF0895F5
:100BB000E1EFF0E091EA908390E29083108210825E
:100BC0001082108291E09083108280838AE3809368
:100BD000E8002FBF80E008951F920F920FB60F928A
:100BE00011248F939F93EF93FF93E1EEF0E08081C8
:100BF000108283FF11C01092E90091E09093EB0006
:100C00001092EC0092E19093ED0098E09093F00048
:100C10001092A5021092A20282FF13C08091A50239
:100C2000882379F08091A402882359F08150809321
:100C3000A402811106C084E08093E9008AE38093D6
:100C4000E800FF91EF919F918F910F900FBE0F9051
:100C50001F9018951F920F920FB60F9211240F93A9
:100C60001F932F933F934F935F936F937F938F9334
:100C70009F93AF93BF93CF93DF93EF93FF93109224
:100C8000E9008091E80083FF4FC1E1EFF0E0A0812F
:100C900080812081908130E0392B4081908150E02B
:100CA000BA01792BC081D08192EF9093E800863011
:100CB00009F059C004C081E28093EB003CC14EE2D0
:100CC00051E008E511E0CA01FA01A591B4912A1793
:100CD0003B0709F5FA013296A591B4916A177B0793
:100CE000D1F4FA01349645915491FC013696249141
:100CF0008C2F90E09D2B8F3F910519F010F08FEF16
:100D000090E0821708F4282FA8EEB0E070E16EEFB3
:100D1000C1EFD0E006C0495F5F4F4017510799F619
:100D2000CACF8C91982F9570E1F382FD04C1322FC8
:100D3000213108F0372F332309F4FAC0FA01832F49
:100D400094919883815031968111FACF8FEF830F60
:100D500090E00196480F591F231B6C932111E1CF9E
:100D60003031F9F2E8C0853061F48EEF8093E8000D
:100D7000E8EEF0E0808180FFFDCF20682093E30063
:100D8000DAC0893009F035C0A111CEC02093A50288
:100D90001092A2021092A4028EEF8093E80081E0EC
:100DA00025EF31E0C9EED0E0ABEEB0E00CEE10E0A4
:100DB0006DEE70E08883A9014F5F5F4FF901949158
:100DC0009C93992361F0FA014491F8014083F90161
:100DD000329694912D5F3F4FFB01908301C09A01A1
:100DE0008F5F853039F7EAEEF0E08EE18083108284
:100DF000A2C0883081F4A03809F096C0E8EEF0E097
:100E0000808180FFFDCF8091A5028093F1008EEF5D
:100E10008093E80090C08132B9F4A13A09F084C00F
:100E2000E8EEF0E0808180FFFDCFE0E0F1E027E038
:100E300031E0A1EFB0E081918C932E173F07D9F7F5
:100E40008EEF8093E80077C08032D1F4A13209F0B0
:100E50006BC0E8EEF0E0808182FFFDCFE0E0F1E0E2
:100E600027E031E0A1EFB0E08C9181932E173F078E
:100E7000D9F7E8EEF0E08BEF80838EEF80835BC0E4
:100E8000823271F4A13209F04FC02093A202E8EE41
:100E9000F0E0808180FFFDCF8EEF8093E8004BC0B3
:100EA00081111AC0E8EEF0E0808180FFFDCFA2380A
:100EB00051F4E9EEF0E060838091EB0085FB882738
:100EC00080F9108201C080E0E1EFF0E080831082C1
:100ED0008EEF8093E8002FC0982F9D7F913021F5F1
:100EE000A23011F5232B01F5462F4F779FEF940F7A
:100EF0009430D0F49EEF9093E8004093E900833063
:100F000021F481E28093EB0016C089E18093EB002D
:100F100081E090E002C0880F991F4A95E2F7EAEE5F
:100F2000F0E08083108207C081E28093EB0003C071
:100F30006C932111F6CEFF91EF91DF91CF91BF918C
:100F4000AF919F918F917F916F915F914F913F9161
:100F50002F911F910F910F900FBE0F901F9018951A
:100F6000CF93DF93EC012196FC018081882329F047
:100F70000E94FF0289918111FBCFDF91CF910895EB
:100F8000CF93DF93CDB7DEB764970FB6F894DEBF8B
:100F90000FBECDBF2AE0AE014F5F5F4F0E947F08BA
:100FA000CE0101960E94B00764960FB6F894DEBF9A
:100FB0000FBECDBFDF91CF9108950F931F93CF93B5
:100FC000DF93CCE1D0E0082F10E0C8010C2E02C066
:100FD000959587950A94E2F78F708A3010F0895CB6
:100FE00001C0805D0E94FF022497CC3F8FEFD8079D
:100FF00061F7DF91CF911F910F9108950F931F9388
:10100000CF93DF93EC018E010E94A30289938D3070
:10101000D1F780E3F8018083DF91CF911F910F9189
:101020000895109280008BE08093810010928200DE
:1010300010928500109284008AEF90E090938900CE
:101040008093880082E080936F0008951F920F9232
:101050000FB60F9211248F939F93AF93BF938091FC
:10106000A6029091A702A091A802B091A9020196B0
:10107000A11DB11D8093A6029093A702A093A80280
:10108000B093A902BF91AF919F918F910F900FBE26
:101090000F901F9018956091A6027091A702809101
:1010A000A8029091A9020895FC019081992349F02A
:1010B000A62FB72F8D919827919390819111FACFF8
:1010C00008950895EE0FFF1F0590F491E02D099407
:1010D000FB01DC0102C001900D9241505040D8F755
:1010E0000895FB01DC014150504030F08D9101909A
:1010F000801919F40020B9F7881B990B0895BB27B4
:101100002A3051F4992342F4BDE290958095709570
:1011100061957F4F8F4F9F4F0C948F08BB27FA012B
:10112000A62F6217710581059105330B30FB66F020
:10113000AA27660F771F881F991FAA1FA21710F0F2
:10114000A21B63953850A9F7A05DAA3308F0A95DEA
:10115000A19336F7B111B1931082CA010C94B00873
:10116000DC01FC01672F71917723E1F7329704C00E
:101170007C916D9370836291AE17BF07C8F3089599
:04118000F894FFCF11
:1011840000E1000000000848656C6C6F20576F7226
:101194006C642031323300000000000000000000C5
:1011A400000000000000000000000000000000003B
:1011B400000000000000000000000000000000002B
:1011C400000000000000000000000000000000001B
:1011D400000000000000000000000000000000000B
:1011E40000000000000000000000006A732C6A6622
:1011F40068616C6B667364666A7333323472383751
:10120400777A7273686966000000000000000000CD
:1012140000000000000000000000000000000000CA
:1012240000000000000000000000000000000000BA
:1012340000000000000000000000000000000000AA
:101244000000000000000000000000000000000D8D
:101254000A546578743A000D0A4B65793A00637252
:1012640079006B65793A000D0A204B6579207A750F
:10127400206B75727A00746578743A0068656C70D6
:10128400000D0A3D3D3D3D3D3D3D3D3D3D3D3D3D2A
:101294003D3D3D3D3D3D3D3D3D3D3D3D3D3D3D3D7A
:1012A4003D3D3D3D3D3D3D3D3D3D3D3D3D000D0A0A
:1012B4000948696C6665000D0A63727909092D781D
:1012C4006F72207465787420756E64206B65792C58
:1012D4002073746F72656420696E206B6579000DEC
:1012E4000A746578743A09092D736574206E6577FC
:1012F4002074657874000D0A6B65793A09092D73B9
:101304006574206E6577206B6579000D0A68656CDD
:101314007009092D7A656967652068696C66650DD1
:021324000A00BD
:00000001FF
